{
  "address": "0xb3ddbF145C1550C72dA1aF743eC7D410B0652046",
  "abi": [
    {
      "inputs": [
        {
          "internalType": "uint256",
          "name": "subscriptionId",
          "type": "uint256"
        }
      ],
      "stateMutability": "nonpayable",
      "type": "constructor"
    },
    {
      "inputs": [
        {
          "internalType": "address",
          "name": "target",
          "type": "address"
        }
      ],
      "name": "AddressEmptyCode",
      "type": "error"
    },
    {
      "inputs": [
        {
          "internalType": "address",
          "name": "sender",
          "type": "address"
        },
        {
          "internalType": "uint256",
          "name": "balance",
          "type": "uint256"
        },
        {
          "internalType": "uint256",
          "name": "needed",
          "type": "uint256"
        },
        {
          "internalType": "uint256",
          "name": "tokenId",
          "type": "uint256"
        }
      ],
      "name": "ERC1155InsufficientBalance",
      "type": "error"
    },
    {
      "inputs": [
        {
          "internalType": "address",
          "name": "approver",
          "type": "address"
        }
      ],
      "name": "ERC1155InvalidApprover",
      "type": "error"
    },
    {
      "inputs": [
        {
          "internalType": "uint256",
          "name": "idsLength",
          "type": "uint256"
        },
        {
          "internalType": "uint256",
          "name": "valuesLength",
          "type": "uint256"
        }
      ],
      "name": "ERC1155InvalidArrayLength",
      "type": "error"
    },
    {
      "inputs": [
        {
          "internalType": "address",
          "name": "operator",
          "type": "address"
        }
      ],
      "name": "ERC1155InvalidOperator",
      "type": "error"
    },
    {
      "inputs": [
        {
          "internalType": "address",
          "name": "receiver",
          "type": "address"
        }
      ],
      "name": "ERC1155InvalidReceiver",
      "type": "error"
    },
    {
      "inputs": [
        {
          "internalType": "address",
          "name": "sender",
          "type": "address"
        }
      ],
      "name": "ERC1155InvalidSender",
      "type": "error"
    },
    {
      "inputs": [
        {
          "internalType": "address",
          "name": "operator",
          "type": "address"
        },
        {
          "internalType": "address",
          "name": "owner",
          "type": "address"
        }
      ],
      "name": "ERC1155MissingApprovalForAll",
      "type": "error"
    },
    {
      "inputs": [],
      "name": "FailedInnerCall",
      "type": "error"
    },
    {
      "inputs": [
        {
          "internalType": "address",
          "name": "have",
          "type": "address"
        },
        {
          "internalType": "address",
          "name": "want",
          "type": "address"
        }
      ],
      "name": "OnlyCoordinatorCanFulfill",
      "type": "error"
    },
    {
      "inputs": [
        {
          "internalType": "address",
          "name": "have",
          "type": "address"
        },
        {
          "internalType": "address",
          "name": "owner",
          "type": "address"
        },
        {
          "internalType": "address",
          "name": "coordinator",
          "type": "address"
        }
      ],
      "name": "OnlyOwnerOrCoordinator",
      "type": "error"
    },
    {
      "inputs": [],
      "name": "ZeroAddress",
      "type": "error"
    },
    {
      "anonymous": false,
      "inputs": [
        {
          "indexed": true,
          "internalType": "address",
          "name": "account",
          "type": "address"
        },
        {
          "indexed": true,
          "internalType": "address",
          "name": "operator",
          "type": "address"
        },
        {
          "indexed": false,
          "internalType": "bool",
          "name": "approved",
          "type": "bool"
        }
      ],
      "name": "ApprovalForAll",
      "type": "event"
    },
    {
      "anonymous": false,
      "inputs": [
        {
          "indexed": false,
          "internalType": "address",
          "name": "vrfCoordinator",
          "type": "address"
        }
      ],
      "name": "CoordinatorSet",
      "type": "event"
    },
    {
      "anonymous": false,
      "inputs": [
        {
          "indexed": true,
          "internalType": "address",
          "name": "from",
          "type": "address"
        },
        {
          "indexed": true,
          "internalType": "address",
          "name": "to",
          "type": "address"
        }
      ],
      "name": "OwnershipTransferRequested",
      "type": "event"
    },
    {
      "anonymous": false,
      "inputs": [
        {
          "indexed": true,
          "internalType": "address",
          "name": "from",
          "type": "address"
        },
        {
          "indexed": true,
          "internalType": "address",
          "name": "to",
          "type": "address"
        }
      ],
      "name": "OwnershipTransferred",
      "type": "event"
    },
    {
      "anonymous": false,
      "inputs": [
        {
          "indexed": true,
          "internalType": "address",
          "name": "minter",
          "type": "address"
        },
        {
          "indexed": true,
          "internalType": "uint256",
          "name": "requestId",
          "type": "uint256"
        },
        {
          "indexed": true,
          "internalType": "uint256",
          "name": "pokemonId",
          "type": "uint256"
        }
      ],
      "name": "PokemonMinted",
      "type": "event"
    },
    {
      "anonymous": false,
      "inputs": [
        {
          "indexed": true,
          "internalType": "uint256",
          "name": "requestId",
          "type": "uint256"
        },
        {
          "indexed": true,
          "internalType": "address",
          "name": "minter",
          "type": "address"
        }
      ],
      "name": "PokemonRequested",
      "type": "event"
    },
    {
      "anonymous": false,
      "inputs": [
        {
          "indexed": true,
          "internalType": "address",
          "name": "operator",
          "type": "address"
        },
        {
          "indexed": true,
          "internalType": "address",
          "name": "from",
          "type": "address"
        },
        {
          "indexed": true,
          "internalType": "address",
          "name": "to",
          "type": "address"
        },
        {
          "indexed": false,
          "internalType": "uint256[]",
          "name": "ids",
          "type": "uint256[]"
        },
        {
          "indexed": false,
          "internalType": "uint256[]",
          "name": "values",
          "type": "uint256[]"
        }
      ],
      "name": "TransferBatch",
      "type": "event"
    },
    {
      "anonymous": false,
      "inputs": [
        {
          "indexed": true,
          "internalType": "address",
          "name": "operator",
          "type": "address"
        },
        {
          "indexed": true,
          "internalType": "address",
          "name": "from",
          "type": "address"
        },
        {
          "indexed": true,
          "internalType": "address",
          "name": "to",
          "type": "address"
        },
        {
          "indexed": false,
          "internalType": "uint256",
          "name": "id",
          "type": "uint256"
        },
        {
          "indexed": false,
          "internalType": "uint256",
          "name": "value",
          "type": "uint256"
        }
      ],
      "name": "TransferSingle",
      "type": "event"
    },
    {
      "anonymous": false,
      "inputs": [
        {
          "indexed": false,
          "internalType": "string",
          "name": "value",
          "type": "string"
        },
        {
          "indexed": true,
          "internalType": "uint256",
          "name": "id",
          "type": "uint256"
        }
      ],
      "name": "URI",
      "type": "event"
    },
    {
      "inputs": [],
      "name": "TOTAL_POKEMON",
      "outputs": [
        {
          "internalType": "uint256",
          "name": "",
          "type": "uint256"
        }
      ],
      "stateMutability": "view",
      "type": "function"
    },
    {
      "inputs": [],
      "name": "acceptOwnership",
      "outputs": [],
      "stateMutability": "nonpayable",
      "type": "function"
    },
    {
      "inputs": [
        {
          "internalType": "address",
          "name": "account",
          "type": "address"
        },
        {
          "internalType": "uint256",
          "name": "id",
          "type": "uint256"
        }
      ],
      "name": "balanceOf",
      "outputs": [
        {
          "internalType": "uint256",
          "name": "",
          "type": "uint256"
        }
      ],
      "stateMutability": "view",
      "type": "function"
    },
    {
      "inputs": [
        {
          "internalType": "address[]",
          "name": "accounts",
          "type": "address[]"
        },
        {
          "internalType": "uint256[]",
          "name": "ids",
          "type": "uint256[]"
        }
      ],
      "name": "balanceOfBatch",
      "outputs": [
        {
          "internalType": "uint256[]",
          "name": "",
          "type": "uint256[]"
        }
      ],
      "stateMutability": "view",
      "type": "function"
    },
    {
      "inputs": [],
      "name": "callbackGasLimit",
      "outputs": [
        {
          "internalType": "uint32",
          "name": "",
          "type": "uint32"
        }
      ],
      "stateMutability": "view",
      "type": "function"
    },
    {
      "inputs": [
        {
          "internalType": "address",
          "name": "account",
          "type": "address"
        },
        {
          "internalType": "address",
          "name": "operator",
          "type": "address"
        }
      ],
      "name": "isApprovedForAll",
      "outputs": [
        {
          "internalType": "bool",
          "name": "",
          "type": "bool"
        }
      ],
      "stateMutability": "view",
      "type": "function"
    },
    {
      "inputs": [
        {
          "internalType": "bytes[]",
          "name": "data",
          "type": "bytes[]"
        }
      ],
      "name": "multicall",
      "outputs": [
        {
          "internalType": "bytes[]",
          "name": "results",
          "type": "bytes[]"
        }
      ],
      "stateMutability": "nonpayable",
      "type": "function"
    },
    {
      "inputs": [],
      "name": "numWords",
      "outputs": [
        {
          "internalType": "uint32",
          "name": "",
          "type": "uint32"
        }
      ],
      "stateMutability": "view",
      "type": "function"
    },
    {
      "inputs": [],
      "name": "owner",
      "outputs": [
        {
          "internalType": "address",
          "name": "",
          "type": "address"
        }
      ],
      "stateMutability": "view",
      "type": "function"
    },
    {
      "inputs": [
        {
          "internalType": "uint256",
          "name": "requestId",
          "type": "uint256"
        },
        {
          "internalType": "uint256[]",
          "name": "randomWords",
          "type": "uint256[]"
        }
      ],
      "name": "rawFulfillRandomWords",
      "outputs": [],
      "stateMutability": "nonpayable",
      "type": "function"
    },
    {
      "inputs": [],
      "name": "requestConfirmations",
      "outputs": [
        {
          "internalType": "uint16",
          "name": "",
          "type": "uint16"
        }
      ],
      "stateMutability": "view",
      "type": "function"
    },
    {
      "inputs": [],
      "name": "requestPokemon",
      "outputs": [
        {
          "internalType": "uint256",
          "name": "requestId",
          "type": "uint256"
        }
      ],
      "stateMutability": "nonpayable",
      "type": "function"
    },
    {
      "inputs": [],
      "name": "s_keyHash",
      "outputs": [
        {
          "internalType": "bytes32",
          "name": "",
          "type": "bytes32"
        }
      ],
      "stateMutability": "view",
      "type": "function"
    },
    {
      "inputs": [],
      "name": "s_subscriptionId",
      "outputs": [
        {
          "internalType": "uint256",
          "name": "",
          "type": "uint256"
        }
      ],
      "stateMutability": "view",
      "type": "function"
    },
    {
      "inputs": [],
      "name": "s_vrfCoordinator",
      "outputs": [
        {
          "internalType": "contract IVRFCoordinatorV2Plus",
          "name": "",
          "type": "address"
        }
      ],
      "stateMutability": "view",
      "type": "function"
    },
    {
      "inputs": [
        {
          "internalType": "address",
          "name": "from",
          "type": "address"
        },
        {
          "internalType": "address",
          "name": "to",
          "type": "address"
        },
        {
          "internalType": "uint256[]",
          "name": "ids",
          "type": "uint256[]"
        },
        {
          "internalType": "uint256[]",
          "name": "values",
          "type": "uint256[]"
        },
        {
          "internalType": "bytes",
          "name": "data",
          "type": "bytes"
        }
      ],
      "name": "safeBatchTransferFrom",
      "outputs": [],
      "stateMutability": "nonpayable",
      "type": "function"
    },
    {
      "inputs": [
        {
          "internalType": "address",
          "name": "from",
          "type": "address"
        },
        {
          "internalType": "address",
          "name": "to",
          "type": "address"
        },
        {
          "internalType": "uint256",
          "name": "id",
          "type": "uint256"
        },
        {
          "internalType": "uint256",
          "name": "value",
          "type": "uint256"
        },
        {
          "internalType": "bytes",
          "name": "data",
          "type": "bytes"
        }
      ],
      "name": "safeTransferFrom",
      "outputs": [],
      "stateMutability": "nonpayable",
      "type": "function"
    },
    {
      "inputs": [
        {
          "internalType": "address",
          "name": "operator",
          "type": "address"
        },
        {
          "internalType": "bool",
          "name": "approved",
          "type": "bool"
        }
      ],
      "name": "setApprovalForAll",
      "outputs": [],
      "stateMutability": "nonpayable",
      "type": "function"
    },
    {
      "inputs": [
        {
          "internalType": "address",
          "name": "_vrfCoordinator",
          "type": "address"
        }
      ],
      "name": "setCoordinator",
      "outputs": [],
      "stateMutability": "nonpayable",
      "type": "function"
    },
    {
      "inputs": [
        {
          "internalType": "string",
          "name": "newuri",
          "type": "string"
        }
      ],
      "name": "setURI",
      "outputs": [],
      "stateMutability": "nonpayable",
      "type": "function"
    },
    {
      "inputs": [
        {
          "internalType": "bytes4",
          "name": "interfaceId",
          "type": "bytes4"
        }
      ],
      "name": "supportsInterface",
      "outputs": [
        {
          "internalType": "bool",
          "name": "",
          "type": "bool"
        }
      ],
      "stateMutability": "view",
      "type": "function"
    },
    {
      "inputs": [
        {
          "internalType": "address",
          "name": "to",
          "type": "address"
        }
      ],
      "name": "transferOwnership",
      "outputs": [],
      "stateMutability": "nonpayable",
      "type": "function"
    },
    {
      "inputs": [
        {
          "internalType": "uint256",
          "name": "id",
          "type": "uint256"
        }
      ],
      "name": "uri",
      "outputs": [
        {
          "internalType": "string",
          "name": "",
          "type": "string"
        }
      ],
      "stateMutability": "view",
      "type": "function"
    },
    {
      "inputs": [],
      "name": "vrfCoordinator",
      "outputs": [
        {
          "internalType": "address",
          "name": "",
          "type": "address"
        }
      ],
      "stateMutability": "view",
      "type": "function"
    }
  ],
  "transactionHash": "0x24f13e1e470491e7e89aeb9c925d3956cfe143039e69638b3d045fadc8af88e2",
  "args": [
    "88626736862189970627260597880715564629835794281030375846488066246044935440652"
  ],
  "numDeployments": 4,
  "solcInputHash": "2c2a80515be858a19eb21c29c59a916b",
  "bytecode": "0x6080604052600880546001600160a01b031916739ddfaca8183c41ad55329bdeed9f6a8d53168b1b1790557f787d74caea10b2b357790d5b5247c2f63d1d91572a9846f780606e4d953677ae600955600a805466010003000557306001600160501b03199091161790553480156200007657600080fd5b506040516200244338038062002443833981016040819052620000999162000287565b604080516020810190915260008082526008546001600160a01b03169033908190816200010d5760405162461bcd60e51b815260206004820152601860248201527f43616e6e6f7420736574206f776e657220746f207a65726f000000000000000060448201526064015b60405180910390fd5b600080546001600160a01b0319166001600160a01b038481169190911790915581161562000140576200014081620001ca565b5050506001600160a01b0381166200016b5760405163d92e233d60e01b815260040160405180910390fd5b600280546001600160a01b0319166001600160a01b0392909216919091179055620001968162000275565b506040518060600160405280603681526020016200240d60369139600690620001c0908262000346565b5060075562000412565b336001600160a01b03821603620002245760405162461bcd60e51b815260206004820152601760248201527f43616e6e6f74207472616e7366657220746f2073656c66000000000000000000604482015260640162000104565b600180546001600160a01b0319166001600160a01b0383811691821790925560008054604051929316917fed8889f560326eb138920d842192f0eb3dd22b4f139c87a2c57538e05bae12789190a350565b600562000283828262000346565b5050565b6000602082840312156200029a57600080fd5b5051919050565b634e487b7160e01b600052604160045260246000fd5b600181811c90821680620002cc57607f821691505b602082108103620002ed57634e487b7160e01b600052602260045260246000fd5b50919050565b601f8211156200034157600081815260208120601f850160051c810160208610156200031c5750805b601f850160051c820191505b818110156200033d5782815560010162000328565b5050505b505050565b81516001600160401b03811115620003625762000362620002a1565b6200037a81620003738454620002b7565b84620002f3565b602080601f831160018114620003b25760008415620003995750858301515b600019600386901b1c1916600185901b1785556200033d565b600085815260208120601f198616915b82811015620003e357888601518255948401946001909101908401620003c2565b5085821015620004025787850151600019600388901b60f8161c191681555b5050505050600190811b01905550565b611feb80620004226000396000f3fe608060405234801561001057600080fd5b50600436106101575760003560e01c80638da5cb5b116100c3578063ac9650d81161007c578063ac9650d8146102f2578063b0fb162f14610312578063e985e9c51461033b578063f242432a1461034e578063f2fde38b14610361578063f82c92b71461037457600080fd5b80638da5cb5b146102795780638ea981171461029e5780639a3d0998146102b15780639eccacf6146102b9578063a22cb465146102cc578063a3e56fa8146102df57600080fd5b80632eb2c2d6116101155780632eb2c2d61461021257806345bb327b146102255780634e1273f41461022e57806379ba50971461024e5780637ccfd7fc146102565780638ac000211461027057600080fd5b8062fdd58e1461015c57806301ffc9a71461018257806302fe5305146101a55780630e89341c146101ba5780631fe543e3146101da57806324f74697146101ed575b600080fd5b61016f61016a366004611540565b61037c565b6040519081526020015b60405180910390f35b610195610190366004611580565b6103a6565b6040519015158152602001610179565b6101b86101b336600461163a565b6103f6565b005b6101cd6101c836600461168a565b61040e565b60405161017991906116f3565b6101b86101e8366004611751565b610442565b600a546101fd9063ffffffff1681565b60405163ffffffff9091168152602001610179565b6101b861022036600461184a565b610497565b61016f60095481565b61024161023c3660046118f3565b6104fe565b60405161017991906119ed565b6101b86105d2565b600a546101fd906601000000000000900463ffffffff1681565b61016f60075481565b6000546001600160a01b03165b6040516001600160a01b039091168152602001610179565b6101b86102ac366004611a00565b61067c565b61016f609781565b600254610286906001600160a01b031681565b6101b86102da366004611a1b565b61076e565b600854610286906001600160a01b031681565b610305610300366004611a57565b610779565b6040516101799190611a98565b600a5461032890640100000000900461ffff1681565b60405161ffff9091168152602001610179565b610195610349366004611afa565b61086b565b6101b861035c366004611b2d565b610899565b6101b861036f366004611a00565b6108f8565b61016f61090c565b60008181526003602090815260408083206001600160a01b03861684529091529020545b92915050565b60006001600160e01b03198216636cdb3d1360e11b14806103d757506001600160e01b031982166303a24d0760e21b145b806103a057506301ffc9a760e01b6001600160e01b03198316146103a0565b6103fe610a3a565b600661040a8282611c11565b5050565b6060600661041b83610a8f565b60405160200161042c929190611cd0565b6040516020818303038152906040529050919050565b6002546001600160a01b031633146104875760025460405163073e64fd60e21b81523360048201526001600160a01b0390911660248201526044015b60405180910390fd5b610492838383610b21565b505050565b336001600160a01b03861681148015906104b857506104b6868261086b565b155b156104e95760405163711bec9160e11b81526001600160a01b0380831660048301528716602482015260440161047e565b6104f68686868686610bad565b505050505050565b6060815183511461052f5781518351604051635b05999160e01b81526004810192909252602482015260440161047e565b600083516001600160401b0381111561054a5761054a61159d565b604051908082528060200260200182016040528015610573578160200160208202803683370190505b50905060005b84518110156105ca5760208082028601015161059d9060208084028701015161037c565b8282815181106105af576105af611d57565b60209081029190910101526105c381611d83565b9050610579565b509392505050565b6001546001600160a01b031633146106255760405162461bcd60e51b815260206004820152601660248201527526bab9ba10313290383937b837b9b2b21037bbb732b960511b604482015260640161047e565b60008054336001600160a01b0319808316821784556001805490911690556040516001600160a01b0390921692909183917f8be0079c531659141344cd1fd0a4f28419497f9722a3daafe3b4186f6b6457e091a350565b6000546001600160a01b031633148015906106a257506002546001600160a01b03163314155b156106f357336106ba6000546001600160a01b031690565b60025460405163061db9c160e01b81526001600160a01b039384166004820152918316602483015291909116604482015260640161047e565b6001600160a01b03811661071a5760405163d92e233d60e01b815260040160405180910390fd5b600280546001600160a01b0319166001600160a01b0383169081179091556040519081527fd1a6a14209a385a964d036e404cb5cfb71f4000cdb03c9366292430787261be69060200160405180910390a150565b61040a338383610c14565b604080516000815260208101909152606090826001600160401b038111156107a3576107a361159d565b6040519080825280602002602001820160405280156107d657816020015b60608152602001906001900390816107c15790505b50915060005b8381101561086357610833308686848181106107fa576107fa611d57565b905060200281019061080c9190611d9c565b8560405160200161081f93929190611de2565b604051602081830303815290604052610caa565b83828151811061084557610845611d57565b6020026020010181905250808061085b90611d83565b9150506107dc565b505092915050565b6001600160a01b03918216600090815260046020908152604080832093909416825291909152205460ff1690565b336001600160a01b03861681148015906108ba57506108b8868261086b565b155b156108eb5760405163711bec9160e11b81526001600160a01b0380831660048301528716602482015260440161047e565b6104f68686868686610d20565b610900610a3a565b61090981610dae565b50565b6002546040805160c0810182526009548152600754602080830191909152600a5461ffff6401000000008204168385015263ffffffff8082166060850152660100000000000090910416608083015282519081019092526000808352926001600160a01b031691639b1c385e919060a082019061098890610e57565b8152506040518263ffffffff1660e01b81526004016109a79190611e09565b6020604051808303816000875af11580156109c6573d6000803e3d6000fd5b505050506040513d601f19601f820116820180604052508101906109ea9190611e66565b6000818152600b602052604080822080546001600160a01b0319163390811790915590519293509183917ff2674003a51fa18aab5e1123bc76441f682bdccd7fdb6188f6f996a39f9307f491a390565b6000546001600160a01b03163314610a8d5760405162461bcd60e51b815260206004820152601660248201527527b7363c9031b0b63630b1363290313c9037bbb732b960511b604482015260640161047e565b565b60606000610a9c83610ec8565b60010190506000816001600160401b03811115610abb57610abb61159d565b6040519080825280601f01601f191660200182016040528015610ae5576020820181803683370190505b5090508181016020015b600019016f181899199a1a9b1b9c1cb0b131b232b360811b600a86061a8153600a8504945084610aef57509392505050565b6000609783836000818110610b3857610b38611d57565b90506020020135610b499190611e7f565b6000858152600b60205260409020549091506001600160a01b0316610b6e8183610fa0565b8185826001600160a01b03167fd69f7156d23a1d9b23e1cbdea811a6be9376a306fc27a7a5663656f2756e55b560405160405180910390a45050505050565b6001600160a01b038416610bd757604051632bfa23e760e11b81526000600482015260240161047e565b6001600160a01b038516610c0057604051626a0d4560e21b81526000600482015260240161047e565b610c0d8585858585610fbc565b5050505050565b6001600160a01b038216610c3d5760405162ced3e160e81b81526000600482015260240161047e565b6001600160a01b03838116600081815260046020908152604080832094871680845294825291829020805460ff191686151590811790915591519182527f17307eab39ab6107e8899845ad3d59bd9653f200f220920489ca2b5937696c31910160405180910390a3505050565b6060600080846001600160a01b031684604051610cc79190611ea1565b600060405180830381855af49150503d8060008114610d02576040519150601f19603f3d011682016040523d82523d6000602084013e610d07565b606091505b5091509150610d1785838361100f565b95945050505050565b6001600160a01b038416610d4a57604051632bfa23e760e11b81526000600482015260240161047e565b6001600160a01b038516610d7357604051626a0d4560e21b81526000600482015260240161047e565b60408051600180825260208201869052818301908152606082018590526080820190925290610da58787848487610fbc565b50505050505050565b336001600160a01b03821603610e065760405162461bcd60e51b815260206004820152601760248201527f43616e6e6f74207472616e7366657220746f2073656c66000000000000000000604482015260640161047e565b600180546001600160a01b0319166001600160a01b0383811691821790925560008054604051929316917fed8889f560326eb138920d842192f0eb3dd22b4f139c87a2c57538e05bae12789190a350565b60607f92fd13387c7fe7befbc38d303d6468778fb9731bc4583f17d92989c6fcfdeaaa82604051602401610e9091511515815260200190565b60408051601f198184030181529190526020810180516001600160e01b03166001600160e01b03199093169290921790915292915050565b60008072184f03e93ff9f4daa797ed6e38ed64bf6a1f0160401b8310610f075772184f03e93ff9f4daa797ed6e38ed64bf6a1f0160401b830492506040015b6d04ee2d6d415b85acef81000000008310610f33576d04ee2d6d415b85acef8100000000830492506020015b662386f26fc100008310610f5157662386f26fc10000830492506010015b6305f5e1008310610f69576305f5e100830492506008015b6127108310610f7d57612710830492506004015b60648310610f8f576064830492506002015b600a83106103a05760010192915050565b61040a828260016040518060200160405280600081525061106e565b610fc8858585856110cb565b6001600160a01b03841615610c0d57825133906001036110015760208481015190840151610ffa8389898585896112ee565b50506104f6565b6104f6818787878787611412565b6060826110245761101f826114fb565b611067565b815115801561103b57506001600160a01b0384163b155b1561106457604051639996b31560e01b81526001600160a01b038516600482015260240161047e565b50805b9392505050565b6001600160a01b03841661109857604051632bfa23e760e11b81526000600482015260240161047e565b604080516001808252602082018690528183019081526060820185905260808201909252906104f6600087848487610fbc565b80518251146110fa5781518151604051635b05999160e01b81526004810192909252602482015260440161047e565b3360005b835181101561120f576020818102858101820151908501909101516001600160a01b038816156111b55760008281526003602090815260408083206001600160a01b038c1684529091529020548181101561118c576040516303dee4c560e01b81526001600160a01b038a16600482015260248101829052604481018390526064810184905260840161047e565b60008381526003602090815260408083206001600160a01b038d16845290915290209082900390555b6001600160a01b038716156111fc5760008281526003602090815260408083206001600160a01b038b168452909152812080548392906111f6908490611ebd565b90915550505b50508061120890611d83565b90506110fe565b5082516001036112905760208301516000906020840151909150856001600160a01b0316876001600160a01b0316846001600160a01b03167fc3d58168c5ae7397731d063d5bbf3d657854427343f4c083240f7aacaa2d0f628585604051611281929190918252602082015260400190565b60405180910390a45050610c0d565b836001600160a01b0316856001600160a01b0316826001600160a01b03167f4a39dc06d4c0dbc64b70af90fd698a233a518aa5d07e595d983b8c0526c8f7fb86866040516112df929190611ed0565b60405180910390a45050505050565b6001600160a01b0384163b156104f65760405163f23a6e6160e01b81526001600160a01b0385169063f23a6e61906113329089908990889088908890600401611ef5565b6020604051808303816000875af192505050801561136d575060408051601f3d908101601f1916820190925261136a91810190611f3a565b60015b6113d6573d80801561139b576040519150601f19603f3d011682016040523d82523d6000602084013e6113a0565b606091505b5080516000036113ce57604051632bfa23e760e11b81526001600160a01b038616600482015260240161047e565b805181602001fd5b6001600160e01b0319811663f23a6e6160e01b14610da557604051632bfa23e760e11b81526001600160a01b038616600482015260240161047e565b6001600160a01b0384163b156104f65760405163bc197c8160e01b81526001600160a01b0385169063bc197c81906114569089908990889088908890600401611f57565b6020604051808303816000875af1925050508015611491575060408051601f3d908101601f1916820190925261148e91810190611f3a565b60015b6114bf573d80801561139b576040519150601f19603f3d011682016040523d82523d6000602084013e6113a0565b6001600160e01b0319811663bc197c8160e01b14610da557604051632bfa23e760e11b81526001600160a01b038616600482015260240161047e565b80511561150b5780518082602001fd5b604051630a12f52160e11b815260040160405180910390fd5b80356001600160a01b038116811461153b57600080fd5b919050565b6000806040838503121561155357600080fd5b61155c83611524565b946020939093013593505050565b6001600160e01b03198116811461090957600080fd5b60006020828403121561159257600080fd5b81356110678161156a565b634e487b7160e01b600052604160045260246000fd5b604051601f8201601f191681016001600160401b03811182821017156115db576115db61159d565b604052919050565b60006001600160401b038311156115fc576115fc61159d565b61160f601f8401601f19166020016115b3565b905082815283838301111561162357600080fd5b828260208301376000602084830101529392505050565b60006020828403121561164c57600080fd5b81356001600160401b0381111561166257600080fd5b8201601f8101841361167357600080fd5b611682848235602084016115e3565b949350505050565b60006020828403121561169c57600080fd5b5035919050565b60005b838110156116be5781810151838201526020016116a6565b50506000910152565b600081518084526116df8160208601602086016116a3565b601f01601f19169290920160200192915050565b60208152600061106760208301846116c7565b60008083601f84011261171857600080fd5b5081356001600160401b0381111561172f57600080fd5b6020830191508360208260051b850101111561174a57600080fd5b9250929050565b60008060006040848603121561176657600080fd5b8335925060208401356001600160401b0381111561178357600080fd5b61178f86828701611706565b9497909650939450505050565b60006001600160401b038211156117b5576117b561159d565b5060051b60200190565b600082601f8301126117d057600080fd5b813560206117e56117e08361179c565b6115b3565b82815260059290921b8401810191818101908684111561180457600080fd5b8286015b8481101561181f5780358352918301918301611808565b509695505050505050565b600082601f83011261183b57600080fd5b611067838335602085016115e3565b600080600080600060a0868803121561186257600080fd5b61186b86611524565b945061187960208701611524565b935060408601356001600160401b038082111561189557600080fd5b6118a189838a016117bf565b945060608801359150808211156118b757600080fd5b6118c389838a016117bf565b935060808801359150808211156118d957600080fd5b506118e68882890161182a565b9150509295509295909350565b6000806040838503121561190657600080fd5b82356001600160401b038082111561191d57600080fd5b818501915085601f83011261193157600080fd5b813560206119416117e08361179c565b82815260059290921b8401810191818101908984111561196057600080fd5b948201945b838610156119855761197686611524565b82529482019490820190611965565b9650508601359250508082111561199b57600080fd5b506119a8858286016117bf565b9150509250929050565b600081518084526020808501945080840160005b838110156119e2578151875295820195908201906001016119c6565b509495945050505050565b60208152600061106760208301846119b2565b600060208284031215611a1257600080fd5b61106782611524565b60008060408385031215611a2e57600080fd5b611a3783611524565b915060208301358015158114611a4c57600080fd5b809150509250929050565b60008060208385031215611a6a57600080fd5b82356001600160401b03811115611a8057600080fd5b611a8c85828601611706565b90969095509350505050565b6000602080830181845280855180835260408601915060408160051b870101925083870160005b82811015611aed57603f19888603018452611adb8583516116c7565b94509285019290850190600101611abf565b5092979650505050505050565b60008060408385031215611b0d57600080fd5b611b1683611524565b9150611b2460208401611524565b90509250929050565b600080600080600060a08688031215611b4557600080fd5b611b4e86611524565b9450611b5c60208701611524565b9350604086013592506060860135915060808601356001600160401b03811115611b8557600080fd5b6118e68882890161182a565b600181811c90821680611ba557607f821691505b602082108103611bc557634e487b7160e01b600052602260045260246000fd5b50919050565b601f82111561049257600081815260208120601f850160051c81016020861015611bf25750805b601f850160051c820191505b818110156104f657828155600101611bfe565b81516001600160401b03811115611c2a57611c2a61159d565b611c3e81611c388454611b91565b84611bcb565b602080601f831160018114611c735760008415611c5b5750858301515b600019600386901b1c1916600185901b1785556104f6565b600085815260208120601f198616915b82811015611ca257888601518255948401946001909101908401611c83565b5085821015611cc05787850151600019600388901b60f8161c191681555b5050505050600190811b01905550565b6000808454611cde81611b91565b60018281168015611cf65760018114611d0b57611d3a565b60ff1984168752821515830287019450611d3a565b8860005260208060002060005b85811015611d315781548a820152908401908201611d18565b50505082870194505b505050508351611d4e8183602088016116a3565b01949350505050565b634e487b7160e01b600052603260045260246000fd5b634e487b7160e01b600052601160045260246000fd5b600060018201611d9557611d95611d6d565b5060010190565b6000808335601e19843603018112611db357600080fd5b8301803591506001600160401b03821115611dcd57600080fd5b60200191503681900382131561174a57600080fd5b828482376000838201600081528351611dff8183602088016116a3565b0195945050505050565b60208152815160208201526020820151604082015261ffff60408301511660608201526000606083015163ffffffff80821660808501528060808601511660a0850152505060a083015160c08084015261168260e08401826116c7565b600060208284031215611e7857600080fd5b5051919050565b600082611e9c57634e487b7160e01b600052601260045260246000fd5b500690565b60008251611eb38184602087016116a3565b9190910192915050565b808201808211156103a0576103a0611d6d565b604081526000611ee360408301856119b2565b8281036020840152610d1781856119b2565b6001600160a01b03868116825285166020820152604081018490526060810183905260a060808201819052600090611f2f908301846116c7565b979650505050505050565b600060208284031215611f4c57600080fd5b81516110678161156a565b6001600160a01b0386811682528516602082015260a060408201819052600090611f83908301866119b2565b8281036060840152611f9581866119b2565b90508281036080840152611fa981856116c7565b9897505050505050505056fea26469706673582212203665049dde12f0f56237c5e8071d4203dc73d0f2fe101e7c5b4af9dc84e9819064736f6c63430008140033697066733a2f2f516d5477387a4b32666568785279436f6966634b44676f5a73463648387a544b7a346241524b66523363664c41512f",
  "devdoc": {
    "errors": {
      "AddressEmptyCode(address)": [
        {
          "details": "There's no code at `target` (it is not a contract)."
        }
      ],
      "ERC1155InsufficientBalance(address,uint256,uint256,uint256)": [
        {
          "details": "Indicates an error related to the current `balance` of a `sender`. Used in transfers.",
          "params": {
            "balance": "Current balance for the interacting account.",
            "needed": "Minimum amount required to perform a transfer.",
            "sender": "Address whose tokens are being transferred.",
            "tokenId": "Identifier number of a token."
          }
        }
      ],
      "ERC1155InvalidApprover(address)": [
        {
          "details": "Indicates a failure with the `approver` of a token to be approved. Used in approvals.",
          "params": {
            "approver": "Address initiating an approval operation."
          }
        }
      ],
      "ERC1155InvalidArrayLength(uint256,uint256)": [
        {
          "details": "Indicates an array length mismatch between ids and values in a safeBatchTransferFrom operation. Used in batch transfers.",
          "params": {
            "idsLength": "Length of the array of token identifiers",
            "valuesLength": "Length of the array of token amounts"
          }
        }
      ],
      "ERC1155InvalidOperator(address)": [
        {
          "details": "Indicates a failure with the `operator` to be approved. Used in approvals.",
          "params": {
            "operator": "Address that may be allowed to operate on tokens without being their owner."
          }
        }
      ],
      "ERC1155InvalidReceiver(address)": [
        {
          "details": "Indicates a failure with the token `receiver`. Used in transfers.",
          "params": {
            "receiver": "Address to which tokens are being transferred."
          }
        }
      ],
      "ERC1155InvalidSender(address)": [
        {
          "details": "Indicates a failure with the token `sender`. Used in transfers.",
          "params": {
            "sender": "Address whose tokens are being transferred."
          }
        }
      ],
      "ERC1155MissingApprovalForAll(address,address)": [
        {
          "details": "Indicates a failure with the `operator`s approval. Used in transfers.",
          "params": {
            "operator": "Address that may be allowed to operate on tokens without being their owner.",
            "owner": "Address of the current owner of a token."
          }
        }
      ],
      "FailedInnerCall()": [
        {
          "details": "A call to an address target failed. The target may have reverted."
        }
      ]
    },
    "events": {
      "ApprovalForAll(address,address,bool)": {
        "details": "Emitted when `account` grants or revokes permission to `operator` to transfer their tokens, according to `approved`."
      },
      "TransferBatch(address,address,address,uint256[],uint256[])": {
        "details": "Equivalent to multiple {TransferSingle} events, where `operator`, `from` and `to` are the same for all transfers."
      },
      "TransferSingle(address,address,address,uint256,uint256)": {
        "details": "Emitted when `value` amount of tokens of type `id` are transferred from `from` to `to` by `operator`."
      },
      "URI(string,uint256)": {
        "details": "Emitted when the URI for token type `id` changes to `value`, if it is a non-programmatic URI. If an {URI} event was emitted for `id`, the standard https://eips.ethereum.org/EIPS/eip-1155#metadata-extensions[guarantees] that `value` will equal the value returned by {IERC1155MetadataURI-uri}."
      }
    },
    "kind": "dev",
    "methods": {
      "balanceOf(address,uint256)": {
        "details": "See {IERC1155-balanceOf}."
      },
      "balanceOfBatch(address[],uint256[])": {
        "details": "See {IERC1155-balanceOfBatch}. Requirements: - `accounts` and `ids` must have the same length."
      },
      "isApprovedForAll(address,address)": {
        "details": "See {IERC1155-isApprovedForAll}."
      },
      "multicall(bytes[])": {
        "custom:oz-upgrades-unsafe-allow-reachable": "delegatecall",
        "details": "Receives and executes a batch of function calls on this contract."
      },
      "safeBatchTransferFrom(address,address,uint256[],uint256[],bytes)": {
        "details": "See {IERC1155-safeBatchTransferFrom}."
      },
      "safeTransferFrom(address,address,uint256,uint256,bytes)": {
        "details": "See {IERC1155-safeTransferFrom}."
      },
      "setApprovalForAll(address,bool)": {
        "details": "See {IERC1155-setApprovalForAll}."
      },
      "supportsInterface(bytes4)": {
        "details": "See {IERC165-supportsInterface}."
      }
    },
    "version": 1
  },
  "userdoc": {
    "kind": "user",
    "methods": {
      "acceptOwnership()": {
        "notice": "Allows an ownership transfer to be completed by the recipient."
      },
      "owner()": {
        "notice": "Get the current owner"
      },
      "setCoordinator(address)": {
        "notice": "Sets the VRF Coordinator addressThis method should only be callable by the coordinator or contract owner"
      },
      "transferOwnership(address)": {
        "notice": "Allows an owner to begin transferring ownership to a new address."
      }
    },
    "version": 1
  },
  "storageLayout": {
    "storage": [
      {
        "astId": 29,
        "contract": "contracts/PokemonNFT.sol:PokemonNFT",
        "label": "s_owner",
        "offset": 0,
        "slot": "0",
        "type": "t_address"
      },
      {
        "astId": 31,
        "contract": "contracts/PokemonNFT.sol:PokemonNFT",
        "label": "s_pendingOwner",
        "offset": 0,
        "slot": "1",
        "type": "t_address"
      },
      {
        "astId": 231,
        "contract": "contracts/PokemonNFT.sol:PokemonNFT",
        "label": "s_vrfCoordinator",
        "offset": 0,
        "slot": "2",
        "type": "t_contract(IVRFCoordinatorV2Plus)380"
      },
      {
        "astId": 704,
        "contract": "contracts/PokemonNFT.sol:PokemonNFT",
        "label": "_balances",
        "offset": 0,
        "slot": "3",
        "type": "t_mapping(t_uint256,t_mapping(t_address,t_uint256))"
      },
      {
        "astId": 710,
        "contract": "contracts/PokemonNFT.sol:PokemonNFT",
        "label": "_operatorApprovals",
        "offset": 0,
        "slot": "4",
        "type": "t_mapping(t_address,t_mapping(t_address,t_bool))"
      },
      {
        "astId": 712,
        "contract": "contracts/PokemonNFT.sol:PokemonNFT",
        "label": "_uri",
        "offset": 0,
        "slot": "5",
        "type": "t_string_storage"
      },
      {
        "astId": 4030,
        "contract": "contracts/PokemonNFT.sol:PokemonNFT",
        "label": "baseURI",
        "offset": 0,
        "slot": "6",
        "type": "t_string_storage"
      },
      {
        "astId": 4035,
        "contract": "contracts/PokemonNFT.sol:PokemonNFT",
        "label": "s_subscriptionId",
        "offset": 0,
        "slot": "7",
        "type": "t_uint256"
      },
      {
        "astId": 4038,
        "contract": "contracts/PokemonNFT.sol:PokemonNFT",
        "label": "vrfCoordinator",
        "offset": 0,
        "slot": "8",
        "type": "t_address"
      },
      {
        "astId": 4041,
        "contract": "contracts/PokemonNFT.sol:PokemonNFT",
        "label": "s_keyHash",
        "offset": 0,
        "slot": "9",
        "type": "t_bytes32"
      },
      {
        "astId": 4044,
        "contract": "contracts/PokemonNFT.sol:PokemonNFT",
        "label": "callbackGasLimit",
        "offset": 0,
        "slot": "10",
        "type": "t_uint32"
      },
      {
        "astId": 4047,
        "contract": "contracts/PokemonNFT.sol:PokemonNFT",
        "label": "requestConfirmations",
        "offset": 4,
        "slot": "10",
        "type": "t_uint16"
      },
      {
        "astId": 4050,
        "contract": "contracts/PokemonNFT.sol:PokemonNFT",
        "label": "numWords",
        "offset": 6,
        "slot": "10",
        "type": "t_uint32"
      },
      {
        "astId": 4054,
        "contract": "contracts/PokemonNFT.sol:PokemonNFT",
        "label": "requests",
        "offset": 0,
        "slot": "11",
        "type": "t_mapping(t_uint256,t_address)"
      }
    ],
    "types": {
      "t_address": {
        "encoding": "inplace",
        "label": "address",
        "numberOfBytes": "20"
      },
      "t_bool": {
        "encoding": "inplace",
        "label": "bool",
        "numberOfBytes": "1"
      },
      "t_bytes32": {
        "encoding": "inplace",
        "label": "bytes32",
        "numberOfBytes": "32"
      },
      "t_contract(IVRFCoordinatorV2Plus)380": {
        "encoding": "inplace",
        "label": "contract IVRFCoordinatorV2Plus",
        "numberOfBytes": "20"
      },
      "t_mapping(t_address,t_bool)": {
        "encoding": "mapping",
        "key": "t_address",
        "label": "mapping(address => bool)",
        "numberOfBytes": "32",
        "value": "t_bool"
      },
      "t_mapping(t_address,t_mapping(t_address,t_bool))": {
        "encoding": "mapping",
        "key": "t_address",
        "label": "mapping(address => mapping(address => bool))",
        "numberOfBytes": "32",
        "value": "t_mapping(t_address,t_bool)"
      },
      "t_mapping(t_address,t_uint256)": {
        "encoding": "mapping",
        "key": "t_address",
        "label": "mapping(address => uint256)",
        "numberOfBytes": "32",
        "value": "t_uint256"
      },
      "t_mapping(t_uint256,t_address)": {
        "encoding": "mapping",
        "key": "t_uint256",
        "label": "mapping(uint256 => address)",
        "numberOfBytes": "32",
        "value": "t_address"
      },
      "t_mapping(t_uint256,t_mapping(t_address,t_uint256))": {
        "encoding": "mapping",
        "key": "t_uint256",
        "label": "mapping(uint256 => mapping(address => uint256))",
        "numberOfBytes": "32",
        "value": "t_mapping(t_address,t_uint256)"
      },
      "t_string_storage": {
        "encoding": "bytes",
        "label": "string",
        "numberOfBytes": "32"
      },
      "t_uint16": {
        "encoding": "inplace",
        "label": "uint16",
        "numberOfBytes": "2"
      },
      "t_uint256": {
        "encoding": "inplace",
        "label": "uint256",
        "numberOfBytes": "32"
      },
      "t_uint32": {
        "encoding": "inplace",
        "label": "uint32",
        "numberOfBytes": "4"
      }
    }
  }
}