{
  "address": "0xFa827804d49C7CAE85AB262113344a01A6350575",
  "abi": [
    {
      "inputs": [],
      "stateMutability": "nonpayable",
      "type": "constructor"
    },
    {
      "anonymous": false,
      "inputs": [
        {
          "indexed": true,
          "internalType": "address",
          "name": "account",
          "type": "address"
        },
        {
          "indexed": true,
          "internalType": "address",
          "name": "operator",
          "type": "address"
        },
        {
          "indexed": false,
          "internalType": "bool",
          "name": "approved",
          "type": "bool"
        }
      ],
      "name": "ApprovalForAll",
      "type": "event"
    },
    {
      "anonymous": false,
      "inputs": [
        {
          "indexed": true,
          "internalType": "address",
          "name": "previousOwner",
          "type": "address"
        },
        {
          "indexed": true,
          "internalType": "address",
          "name": "newOwner",
          "type": "address"
        }
      ],
      "name": "OwnershipTransferStarted",
      "type": "event"
    },
    {
      "anonymous": false,
      "inputs": [
        {
          "indexed": true,
          "internalType": "address",
          "name": "previousOwner",
          "type": "address"
        },
        {
          "indexed": true,
          "internalType": "address",
          "name": "newOwner",
          "type": "address"
        }
      ],
      "name": "OwnershipTransferred",
      "type": "event"
    },
    {
      "anonymous": false,
      "inputs": [
        {
          "indexed": true,
          "internalType": "address",
          "name": "minter",
          "type": "address"
        },
        {
          "indexed": true,
          "internalType": "uint256",
          "name": "pokemonId",
          "type": "uint256"
        }
      ],
      "name": "PokemonMinted",
      "type": "event"
    },
    {
      "anonymous": false,
      "inputs": [
        {
          "indexed": true,
          "internalType": "address",
          "name": "operator",
          "type": "address"
        },
        {
          "indexed": true,
          "internalType": "address",
          "name": "from",
          "type": "address"
        },
        {
          "indexed": true,
          "internalType": "address",
          "name": "to",
          "type": "address"
        },
        {
          "indexed": false,
          "internalType": "uint256[]",
          "name": "ids",
          "type": "uint256[]"
        },
        {
          "indexed": false,
          "internalType": "uint256[]",
          "name": "values",
          "type": "uint256[]"
        }
      ],
      "name": "TransferBatch",
      "type": "event"
    },
    {
      "anonymous": false,
      "inputs": [
        {
          "indexed": true,
          "internalType": "address",
          "name": "operator",
          "type": "address"
        },
        {
          "indexed": true,
          "internalType": "address",
          "name": "from",
          "type": "address"
        },
        {
          "indexed": true,
          "internalType": "address",
          "name": "to",
          "type": "address"
        },
        {
          "indexed": false,
          "internalType": "uint256",
          "name": "id",
          "type": "uint256"
        },
        {
          "indexed": false,
          "internalType": "uint256",
          "name": "value",
          "type": "uint256"
        }
      ],
      "name": "TransferSingle",
      "type": "event"
    },
    {
      "anonymous": false,
      "inputs": [
        {
          "indexed": false,
          "internalType": "string",
          "name": "value",
          "type": "string"
        },
        {
          "indexed": true,
          "internalType": "uint256",
          "name": "id",
          "type": "uint256"
        }
      ],
      "name": "URI",
      "type": "event"
    },
    {
      "inputs": [],
      "name": "TOTAL_POKEMON",
      "outputs": [
        {
          "internalType": "uint256",
          "name": "",
          "type": "uint256"
        }
      ],
      "stateMutability": "view",
      "type": "function"
    },
    {
      "inputs": [],
      "name": "acceptOwnership",
      "outputs": [],
      "stateMutability": "nonpayable",
      "type": "function"
    },
    {
      "inputs": [
        {
          "internalType": "address",
          "name": "account",
          "type": "address"
        },
        {
          "internalType": "uint256",
          "name": "id",
          "type": "uint256"
        }
      ],
      "name": "balanceOf",
      "outputs": [
        {
          "internalType": "uint256",
          "name": "",
          "type": "uint256"
        }
      ],
      "stateMutability": "view",
      "type": "function"
    },
    {
      "inputs": [
        {
          "internalType": "address[]",
          "name": "accounts",
          "type": "address[]"
        },
        {
          "internalType": "uint256[]",
          "name": "ids",
          "type": "uint256[]"
        }
      ],
      "name": "balanceOfBatch",
      "outputs": [
        {
          "internalType": "uint256[]",
          "name": "",
          "type": "uint256[]"
        }
      ],
      "stateMutability": "view",
      "type": "function"
    },
    {
      "inputs": [],
      "name": "baseURI",
      "outputs": [
        {
          "internalType": "string",
          "name": "",
          "type": "string"
        }
      ],
      "stateMutability": "view",
      "type": "function"
    },
    {
      "inputs": [
        {
          "internalType": "address",
          "name": "account",
          "type": "address"
        },
        {
          "internalType": "address",
          "name": "operator",
          "type": "address"
        }
      ],
      "name": "isApprovedForAll",
      "outputs": [
        {
          "internalType": "bool",
          "name": "",
          "type": "bool"
        }
      ],
      "stateMutability": "view",
      "type": "function"
    },
    {
      "inputs": [
        {
          "internalType": "uint256",
          "name": "id",
          "type": "uint256"
        }
      ],
      "name": "mint",
      "outputs": [],
      "stateMutability": "nonpayable",
      "type": "function"
    },
    {
      "inputs": [
        {
          "internalType": "bytes[]",
          "name": "data",
          "type": "bytes[]"
        }
      ],
      "name": "multicall",
      "outputs": [
        {
          "internalType": "bytes[]",
          "name": "results",
          "type": "bytes[]"
        }
      ],
      "stateMutability": "nonpayable",
      "type": "function"
    },
    {
      "inputs": [],
      "name": "owner",
      "outputs": [
        {
          "internalType": "address",
          "name": "",
          "type": "address"
        }
      ],
      "stateMutability": "view",
      "type": "function"
    },
    {
      "inputs": [],
      "name": "pendingOwner",
      "outputs": [
        {
          "internalType": "address",
          "name": "",
          "type": "address"
        }
      ],
      "stateMutability": "view",
      "type": "function"
    },
    {
      "inputs": [],
      "name": "renounceOwnership",
      "outputs": [],
      "stateMutability": "nonpayable",
      "type": "function"
    },
    {
      "inputs": [
        {
          "internalType": "address",
          "name": "from",
          "type": "address"
        },
        {
          "internalType": "address",
          "name": "to",
          "type": "address"
        },
        {
          "internalType": "uint256[]",
          "name": "ids",
          "type": "uint256[]"
        },
        {
          "internalType": "uint256[]",
          "name": "amounts",
          "type": "uint256[]"
        },
        {
          "internalType": "bytes",
          "name": "data",
          "type": "bytes"
        }
      ],
      "name": "safeBatchTransferFrom",
      "outputs": [],
      "stateMutability": "nonpayable",
      "type": "function"
    },
    {
      "inputs": [
        {
          "internalType": "address",
          "name": "from",
          "type": "address"
        },
        {
          "internalType": "address",
          "name": "to",
          "type": "address"
        },
        {
          "internalType": "uint256",
          "name": "id",
          "type": "uint256"
        },
        {
          "internalType": "uint256",
          "name": "amount",
          "type": "uint256"
        },
        {
          "internalType": "bytes",
          "name": "data",
          "type": "bytes"
        }
      ],
      "name": "safeTransferFrom",
      "outputs": [],
      "stateMutability": "nonpayable",
      "type": "function"
    },
    {
      "inputs": [
        {
          "internalType": "address",
          "name": "operator",
          "type": "address"
        },
        {
          "internalType": "bool",
          "name": "approved",
          "type": "bool"
        }
      ],
      "name": "setApprovalForAll",
      "outputs": [],
      "stateMutability": "nonpayable",
      "type": "function"
    },
    {
      "inputs": [
        {
          "internalType": "string",
          "name": "newuri",
          "type": "string"
        }
      ],
      "name": "setURI",
      "outputs": [],
      "stateMutability": "nonpayable",
      "type": "function"
    },
    {
      "inputs": [
        {
          "internalType": "bytes4",
          "name": "interfaceId",
          "type": "bytes4"
        }
      ],
      "name": "supportsInterface",
      "outputs": [
        {
          "internalType": "bool",
          "name": "",
          "type": "bool"
        }
      ],
      "stateMutability": "view",
      "type": "function"
    },
    {
      "inputs": [
        {
          "internalType": "address",
          "name": "newOwner",
          "type": "address"
        }
      ],
      "name": "transferOwnership",
      "outputs": [],
      "stateMutability": "nonpayable",
      "type": "function"
    },
    {
      "inputs": [
        {
          "internalType": "uint256",
          "name": "id",
          "type": "uint256"
        }
      ],
      "name": "uri",
      "outputs": [
        {
          "internalType": "string",
          "name": "",
          "type": "string"
        }
      ],
      "stateMutability": "view",
      "type": "function"
    }
  ],
  "transactionHash": "0x40d957f16f2f0fa78f6ff4b5d560826cbdab70c6e24a2bd0a13d8ae5035b5f43",
  "args": [],
  "numDeployments": 7,
  "solcInputHash": "af5e5426aabd7f82623931402d698d2b",
  "bytecode": "0x60806040523480156200001157600080fd5b506040805160208101909152600081526200002c8162000068565b5062000038336200007a565b604051806060016040528060368152602001620021c2603691396005906200006190826200018f565b506200025b565b60026200007682826200018f565b5050565b600480546001600160a01b0319169055620000958162000098565b50565b600380546001600160a01b038381166001600160a01b0319831681179093556040519116919082907f8be0079c531659141344cd1fd0a4f28419497f9722a3daafe3b4186f6b6457e090600090a35050565b634e487b7160e01b600052604160045260246000fd5b600181811c908216806200011557607f821691505b6020821081036200013657634e487b7160e01b600052602260045260246000fd5b50919050565b601f8211156200018a57600081815260208120601f850160051c81016020861015620001655750805b601f850160051c820191505b81811015620001865782815560010162000171565b5050505b505050565b81516001600160401b03811115620001ab57620001ab620000ea565b620001c381620001bc845462000100565b846200013c565b602080601f831160018114620001fb5760008415620001e25750858301515b600019600386901b1c1916600185901b17855562000186565b600085815260208120601f198616915b828110156200022c578886015182559484019460019091019084016200020b565b50858210156200024b5787850151600019600388901b60f8161c191681555b5050505050600190811b01905550565b611f57806200026b6000396000f3fe608060405234801561001057600080fd5b50600436106101155760003560e01c80638da5cb5b116100a2578063ac9650d811610071578063ac9650d814610236578063e30c397814610256578063e985e9c514610267578063f242432a146102a3578063f2fde38b146102b657600080fd5b80638da5cb5b146101e35780639a3d099814610208578063a0712d6814610210578063a22cb4651461022357600080fd5b80632eb2c2d6116100e95780632eb2c2d6146101985780634e1273f4146101ab5780636c0360eb146101cb578063715018a6146101d357806379ba5097146101db57600080fd5b8062fdd58e1461011a57806301ffc9a71461014057806302fe5305146101635780630e89341c14610178575b600080fd5b61012d6101283660046113bd565b6102c9565b6040519081526020015b60405180910390f35b61015361014e3660046113fd565b610362565b6040519015158152602001610137565b6101766101713660046114b9565b6103b2565b005b61018b610186366004611501565b6103ca565b604051610137919061156a565b6101766101a6366004611631565b6103fe565b6101be6101b93660046116da565b61044a565b60405161013791906117df565b61018b610573565b610176610601565b610176610615565b6003546001600160a01b03165b6040516001600160a01b039091168152602001610137565b61012d609781565b61017661021e366004611501565b61068f565b6101766102313660046117f2565b61072c565b61024961024436600461182e565b610737565b60405161013791906118a2565b6004546001600160a01b03166101f0565b610153610275366004611904565b6001600160a01b03918216600090815260016020908152604080832093909416825291909152205460ff1690565b6101766102b1366004611937565b61082b565b6101766102c436600461199b565b610870565b60006001600160a01b0383166103395760405162461bcd60e51b815260206004820152602a60248201527f455243313135353a2061646472657373207a65726f206973206e6f742061207660448201526930b634b21037bbb732b960b11b60648201526084015b60405180910390fd5b506000818152602081815260408083206001600160a01b03861684529091529020545b92915050565b60006001600160e01b03198216636cdb3d1360e11b148061039357506001600160e01b031982166303a24d0760e21b145b8061035c57506301ffc9a760e01b6001600160e01b031983161461035c565b6103ba6108e1565b60056103c68282611a3b565b5050565b606060056103d78361093b565b6040516020016103e8929190611afa565b6040516020818303038152906040529050919050565b6001600160a01b03851633148061041a575061041a8533610275565b6104365760405162461bcd60e51b815260040161033090611b81565b61044385858585856109cd565b5050505050565b606081518351146104af5760405162461bcd60e51b815260206004820152602960248201527f455243313135353a206163636f756e747320616e6420696473206c656e677468604482015268040dad2e6dac2e8c6d60bb1b6064820152608401610330565b600083516001600160401b038111156104ca576104ca61141a565b6040519080825280602002602001820160405280156104f3578160200160208202803683370190505b50905060005b845181101561056b5761053e85828151811061051757610517611bcf565b602002602001015185838151811061053157610531611bcf565b60200260200101516102c9565b82828151811061055057610550611bcf565b602090810291909101015261056481611bfb565b90506104f9565b509392505050565b60058054610580906119b6565b80601f01602080910402602001604051908101604052809291908181526020018280546105ac906119b6565b80156105f95780601f106105ce576101008083540402835291602001916105f9565b820191906000526020600020905b8154815290600101906020018083116105dc57829003601f168201915b505050505081565b6106096108e1565b6106136000610baa565b565b60045433906001600160a01b031681146106835760405162461bcd60e51b815260206004820152602960248201527f4f776e61626c6532537465703a2063616c6c6572206973206e6f7420746865206044820152683732bb9037bbb732b960b91b6064820152608401610330565b61068c81610baa565b50565b60978111156106e05760405162461bcd60e51b815260206004820152601e60248201527f506f6b656d6f6e4e46543a20496e76616c696420506f6b656d6f6e20494400006044820152606401610330565b6106fc3382600160405180602001604052806000815250610bc3565b604051819033907fd3abb3bf98c1d0f4bd1ce97e6106eaae8651b8d4999e971e4334942f1f10371890600090a350565b6103c6338383610cd7565b6060816001600160401b038111156107515761075161141a565b60405190808252806020026020018201604052801561078457816020015b606081526020019060019003908161076f5790505b50905060005b82811015610824576107f4308585848181106107a8576107a8611bcf565b90506020028101906107ba9190611c14565b8080601f016020809104026020016040519081016040528093929190818152602001838380828437600092019190915250610db792505050565b82828151811061080657610806611bcf565b6020026020010181905250808061081c90611bfb565b91505061078a565b5092915050565b6001600160a01b03851633148061084757506108478533610275565b6108635760405162461bcd60e51b815260040161033090611b81565b6104438585858585610de3565b6108786108e1565b600480546001600160a01b0383166001600160a01b031990911681179091556108a96003546001600160a01b031690565b6001600160a01b03167f38d16b8cac22d99fc7c124b9cd0de2d3fa1faef420bfe791d8c362d765e2270060405160405180910390a350565b6003546001600160a01b031633146106135760405162461bcd60e51b815260206004820181905260248201527f4f776e61626c653a2063616c6c6572206973206e6f7420746865206f776e65726044820152606401610330565b6060600061094883610f0d565b60010190506000816001600160401b038111156109675761096761141a565b6040519080825280601f01601f191660200182016040528015610991576020820181803683370190505b5090508181016020015b600019016f181899199a1a9b1b9c1cb0b131b232b360811b600a86061a8153600a850494508461099b57509392505050565b8151835114610a2f5760405162461bcd60e51b815260206004820152602860248201527f455243313135353a2069647320616e6420616d6f756e7473206c656e677468206044820152670dad2e6dac2e8c6d60c31b6064820152608401610330565b6001600160a01b038416610a555760405162461bcd60e51b815260040161033090611c61565b3360005b8451811015610b3c576000858281518110610a7657610a76611bcf565b602002602001015190506000858381518110610a9457610a94611bcf565b602090810291909101810151600084815280835260408082206001600160a01b038e168352909352919091205490915081811015610ae45760405162461bcd60e51b815260040161033090611ca6565b6000838152602081815260408083206001600160a01b038e8116855292528083208585039055908b16825281208054849290610b21908490611cf0565b9250508190555050505080610b3590611bfb565b9050610a59565b50846001600160a01b0316866001600160a01b0316826001600160a01b03167f4a39dc06d4c0dbc64b70af90fd698a233a518aa5d07e595d983b8c0526c8f7fb8787604051610b8c929190611d03565b60405180910390a4610ba2818787878787610fe5565b505050505050565b600480546001600160a01b031916905561068c81611140565b6001600160a01b038416610c235760405162461bcd60e51b815260206004820152602160248201527f455243313135353a206d696e7420746f20746865207a65726f206164647265736044820152607360f81b6064820152608401610330565b336000610c2f85611192565b90506000610c3c85611192565b90506000868152602081815260408083206001600160a01b038b16845290915281208054879290610c6e908490611cf0565b909155505060408051878152602081018790526001600160a01b03808a1692600092918716917fc3d58168c5ae7397731d063d5bbf3d657854427343f4c083240f7aacaa2d0f62910160405180910390a4610cce836000898989896111dd565b50505050505050565b816001600160a01b0316836001600160a01b031603610d4a5760405162461bcd60e51b815260206004820152602960248201527f455243313135353a2073657474696e6720617070726f76616c20737461747573604482015268103337b91039b2b63360b91b6064820152608401610330565b6001600160a01b03838116600081815260016020908152604080832094871680845294825291829020805460ff191686151590811790915591519182527f17307eab39ab6107e8899845ad3d59bd9653f200f220920489ca2b5937696c31910160405180910390a3505050565b6060610ddc8383604051806060016040528060278152602001611efb60279139611298565b9392505050565b6001600160a01b038416610e095760405162461bcd60e51b815260040161033090611c61565b336000610e1585611192565b90506000610e2285611192565b90506000868152602081815260408083206001600160a01b038c16845290915290205485811015610e655760405162461bcd60e51b815260040161033090611ca6565b6000878152602081815260408083206001600160a01b038d8116855292528083208985039055908a16825281208054889290610ea2908490611cf0565b909155505060408051888152602081018890526001600160a01b03808b16928c821692918816917fc3d58168c5ae7397731d063d5bbf3d657854427343f4c083240f7aacaa2d0f62910160405180910390a4610f02848a8a8a8a8a6111dd565b505050505050505050565b60008072184f03e93ff9f4daa797ed6e38ed64bf6a1f0160401b8310610f4c5772184f03e93ff9f4daa797ed6e38ed64bf6a1f0160401b830492506040015b6d04ee2d6d415b85acef81000000008310610f78576d04ee2d6d415b85acef8100000000830492506020015b662386f26fc100008310610f9657662386f26fc10000830492506010015b6305f5e1008310610fae576305f5e100830492506008015b6127108310610fc257612710830492506004015b60648310610fd4576064830492506002015b600a831061035c5760010192915050565b6001600160a01b0384163b15610ba25760405163bc197c8160e01b81526001600160a01b0385169063bc197c81906110299089908990889088908890600401611d31565b6020604051808303816000875af1925050508015611064575060408051601f3d908101601f1916820190925261106191810190611d8f565b60015b61111057611070611dac565b806308c379a0036110a95750611084611dc8565b8061108f57506110ab565b8060405162461bcd60e51b8152600401610330919061156a565b505b60405162461bcd60e51b815260206004820152603460248201527f455243313135353a207472616e7366657220746f206e6f6e2d455243313135356044820152732932b1b2b4bb32b91034b6b83632b6b2b73a32b960611b6064820152608401610330565b6001600160e01b0319811663bc197c8160e01b14610cce5760405162461bcd60e51b815260040161033090611e51565b600380546001600160a01b038381166001600160a01b0319831681179093556040519116919082907f8be0079c531659141344cd1fd0a4f28419497f9722a3daafe3b4186f6b6457e090600090a35050565b604080516001808252818301909252606091600091906020808301908036833701905050905082816000815181106111cc576111cc611bcf565b602090810291909101015292915050565b6001600160a01b0384163b15610ba25760405163f23a6e6160e01b81526001600160a01b0385169063f23a6e61906112219089908990889088908890600401611e99565b6020604051808303816000875af192505050801561125c575060408051601f3d908101601f1916820190925261125991810190611d8f565b60015b61126857611070611dac565b6001600160e01b0319811663f23a6e6160e01b14610cce5760405162461bcd60e51b815260040161033090611e51565b6060600080856001600160a01b0316856040516112b59190611ede565b600060405180830381855af49150503d80600081146112f0576040519150601f19603f3d011682016040523d82523d6000602084013e6112f5565b606091505b509150915061130686838387611310565b9695505050505050565b6060831561137f578251600003611378576001600160a01b0385163b6113785760405162461bcd60e51b815260206004820152601d60248201527f416464726573733a2063616c6c20746f206e6f6e2d636f6e74726163740000006044820152606401610330565b5081611389565b6113898383611391565b949350505050565b81511561108f5781518083602001fd5b80356001600160a01b03811681146113b857600080fd5b919050565b600080604083850312156113d057600080fd5b6113d9836113a1565b946020939093013593505050565b6001600160e01b03198116811461068c57600080fd5b60006020828403121561140f57600080fd5b8135610ddc816113e7565b634e487b7160e01b600052604160045260246000fd5b601f8201601f191681016001600160401b03811182821017156114555761145561141a565b6040525050565b60006001600160401b038311156114755761147561141a565b60405161148c601f8501601f191660200182611430565b8091508381528484840111156114a157600080fd5b83836020830137600060208583010152509392505050565b6000602082840312156114cb57600080fd5b81356001600160401b038111156114e157600080fd5b8201601f810184136114f257600080fd5b6113898482356020840161145c565b60006020828403121561151357600080fd5b5035919050565b60005b8381101561153557818101518382015260200161151d565b50506000910152565b6000815180845261155681602086016020860161151a565b601f01601f19169290920160200192915050565b602081526000610ddc602083018461153e565b60006001600160401b038211156115965761159661141a565b5060051b60200190565b600082601f8301126115b157600080fd5b813560206115be8261157d565b6040516115cb8282611430565b83815260059390931b85018201928281019150868411156115eb57600080fd5b8286015b8481101561160657803583529183019183016115ef565b509695505050505050565b600082601f83011261162257600080fd5b610ddc8383356020850161145c565b600080600080600060a0868803121561164957600080fd5b611652866113a1565b9450611660602087016113a1565b935060408601356001600160401b038082111561167c57600080fd5b61168889838a016115a0565b9450606088013591508082111561169e57600080fd5b6116aa89838a016115a0565b935060808801359150808211156116c057600080fd5b506116cd88828901611611565b9150509295509295909350565b600080604083850312156116ed57600080fd5b82356001600160401b038082111561170457600080fd5b818501915085601f83011261171857600080fd5b813560206117258261157d565b6040516117328282611430565b83815260059390931b850182019282810191508984111561175257600080fd5b948201945b8386101561177757611768866113a1565b82529482019490820190611757565b9650508601359250508082111561178d57600080fd5b5061179a858286016115a0565b9150509250929050565b600081518084526020808501945080840160005b838110156117d4578151875295820195908201906001016117b8565b509495945050505050565b602081526000610ddc60208301846117a4565b6000806040838503121561180557600080fd5b61180e836113a1565b91506020830135801515811461182357600080fd5b809150509250929050565b6000806020838503121561184157600080fd5b82356001600160401b038082111561185857600080fd5b818501915085601f83011261186c57600080fd5b81358181111561187b57600080fd5b8660208260051b850101111561189057600080fd5b60209290920196919550909350505050565b6000602080830181845280855180835260408601915060408160051b870101925083870160005b828110156118f757603f198886030184526118e585835161153e565b945092850192908501906001016118c9565b5092979650505050505050565b6000806040838503121561191757600080fd5b611920836113a1565b915061192e602084016113a1565b90509250929050565b600080600080600060a0868803121561194f57600080fd5b611958866113a1565b9450611966602087016113a1565b9350604086013592506060860135915060808601356001600160401b0381111561198f57600080fd5b6116cd88828901611611565b6000602082840312156119ad57600080fd5b610ddc826113a1565b600181811c908216806119ca57607f821691505b6020821081036119ea57634e487b7160e01b600052602260045260246000fd5b50919050565b601f821115611a3657600081815260208120601f850160051c81016020861015611a175750805b601f850160051c820191505b81811015610ba257828155600101611a23565b505050565b81516001600160401b03811115611a5457611a5461141a565b611a6881611a6284546119b6565b846119f0565b602080601f831160018114611a9d5760008415611a855750858301515b600019600386901b1c1916600185901b178555610ba2565b600085815260208120601f198616915b82811015611acc57888601518255948401946001909101908401611aad565b5085821015611aea5787850151600019600388901b60f8161c191681555b5050505050600190811b01905550565b6000808454611b08816119b6565b60018281168015611b205760018114611b3557611b64565b60ff1984168752821515830287019450611b64565b8860005260208060002060005b85811015611b5b5781548a820152908401908201611b42565b50505082870194505b505050508351611b7881836020880161151a565b01949350505050565b6020808252602e908201527f455243313135353a2063616c6c6572206973206e6f7420746f6b656e206f776e60408201526d195c881bdc88185c1c1c9bdd995960921b606082015260800190565b634e487b7160e01b600052603260045260246000fd5b634e487b7160e01b600052601160045260246000fd5b600060018201611c0d57611c0d611be5565b5060010190565b6000808335601e19843603018112611c2b57600080fd5b8301803591506001600160401b03821115611c4557600080fd5b602001915036819003821315611c5a57600080fd5b9250929050565b60208082526025908201527f455243313135353a207472616e7366657220746f20746865207a65726f206164604082015264647265737360d81b606082015260800190565b6020808252602a908201527f455243313135353a20696e73756666696369656e742062616c616e636520666f60408201526939103a3930b739b332b960b11b606082015260800190565b8082018082111561035c5761035c611be5565b604081526000611d1660408301856117a4565b8281036020840152611d2881856117a4565b95945050505050565b6001600160a01b0386811682528516602082015260a060408201819052600090611d5d908301866117a4565b8281036060840152611d6f81866117a4565b90508281036080840152611d83818561153e565b98975050505050505050565b600060208284031215611da157600080fd5b8151610ddc816113e7565b600060033d1115611dc55760046000803e5060005160e01c5b90565b600060443d1015611dd65790565b6040516003193d81016004833e81513d6001600160401b038160248401118184111715611e0557505050505090565b8285019150815181811115611e1d5750505050505090565b843d8701016020828501011115611e375750505050505090565b611e4660208286010187611430565b509095945050505050565b60208082526028908201527f455243313135353a204552433131353552656365697665722072656a656374656040820152676420746f6b656e7360c01b606082015260800190565b6001600160a01b03868116825285166020820152604081018490526060810183905260a060808201819052600090611ed39083018461153e565b979650505050505050565b60008251611ef081846020870161151a565b919091019291505056fe416464726573733a206c6f772d6c6576656c2064656c65676174652063616c6c206661696c6564a26469706673582212207e5fe7c48216b36ec362fe9f75775e64eb71655704636fe383515115b249c42564736f6c63430008140033697066733a2f2f516d5477387a4b32666568785279436f6966634b44676f5a73463648387a544b7a346241524b66523363664c41512f",
  "devdoc": {
    "events": {
      "ApprovalForAll(address,address,bool)": {
        "details": "Emitted when `account` grants or revokes permission to `operator` to transfer their tokens, according to `approved`."
      },
      "TransferBatch(address,address,address,uint256[],uint256[])": {
        "details": "Equivalent to multiple {TransferSingle} events, where `operator`, `from` and `to` are the same for all transfers."
      },
      "TransferSingle(address,address,address,uint256,uint256)": {
        "details": "Emitted when `value` tokens of token type `id` are transferred from `from` to `to` by `operator`."
      },
      "URI(string,uint256)": {
        "details": "Emitted when the URI for token type `id` changes to `value`, if it is a non-programmatic URI. If an {URI} event was emitted for `id`, the standard https://eips.ethereum.org/EIPS/eip-1155#metadata-extensions[guarantees] that `value` will equal the value returned by {IERC1155MetadataURI-uri}."
      }
    },
    "kind": "dev",
    "methods": {
      "acceptOwnership()": {
        "details": "The new owner accepts the ownership transfer."
      },
      "balanceOf(address,uint256)": {
        "details": "See {IERC1155-balanceOf}. Requirements: - `account` cannot be the zero address."
      },
      "balanceOfBatch(address[],uint256[])": {
        "details": "See {IERC1155-balanceOfBatch}. Requirements: - `accounts` and `ids` must have the same length."
      },
      "isApprovedForAll(address,address)": {
        "details": "See {IERC1155-isApprovedForAll}."
      },
      "multicall(bytes[])": {
        "custom:oz-upgrades-unsafe-allow-reachable": "delegatecall",
        "details": "Receives and executes a batch of function calls on this contract."
      },
      "owner()": {
        "details": "Returns the address of the current owner."
      },
      "pendingOwner()": {
        "details": "Returns the address of the pending owner."
      },
      "renounceOwnership()": {
        "details": "Leaves the contract without owner. It will not be possible to call `onlyOwner` functions. Can only be called by the current owner. NOTE: Renouncing ownership will leave the contract without an owner, thereby disabling any functionality that is only available to the owner."
      },
      "safeBatchTransferFrom(address,address,uint256[],uint256[],bytes)": {
        "details": "See {IERC1155-safeBatchTransferFrom}."
      },
      "safeTransferFrom(address,address,uint256,uint256,bytes)": {
        "details": "See {IERC1155-safeTransferFrom}."
      },
      "setApprovalForAll(address,bool)": {
        "details": "See {IERC1155-setApprovalForAll}."
      },
      "supportsInterface(bytes4)": {
        "details": "See {IERC165-supportsInterface}."
      },
      "transferOwnership(address)": {
        "details": "Starts the ownership transfer of the contract to a new account. Replaces the pending transfer if there is one. Can only be called by the current owner."
      }
    },
    "version": 1
  },
  "userdoc": {
    "kind": "user",
    "methods": {},
    "version": 1
  },
  "storageLayout": {
    "storage": [
      {
        "astId": 221,
        "contract": "contracts/PokemonNFT.sol:PokemonNFT",
        "label": "_balances",
        "offset": 0,
        "slot": "0",
        "type": "t_mapping(t_uint256,t_mapping(t_address,t_uint256))"
      },
      {
        "astId": 227,
        "contract": "contracts/PokemonNFT.sol:PokemonNFT",
        "label": "_operatorApprovals",
        "offset": 0,
        "slot": "1",
        "type": "t_mapping(t_address,t_mapping(t_address,t_bool))"
      },
      {
        "astId": 229,
        "contract": "contracts/PokemonNFT.sol:PokemonNFT",
        "label": "_uri",
        "offset": 0,
        "slot": "2",
        "type": "t_string_storage"
      },
      {
        "astId": 7,
        "contract": "contracts/PokemonNFT.sol:PokemonNFT",
        "label": "_owner",
        "offset": 0,
        "slot": "3",
        "type": "t_address"
      },
      {
        "astId": 120,
        "contract": "contracts/PokemonNFT.sol:PokemonNFT",
        "label": "_pendingOwner",
        "offset": 0,
        "slot": "4",
        "type": "t_address"
      },
      {
        "astId": 3261,
        "contract": "contracts/PokemonNFT.sol:PokemonNFT",
        "label": "baseURI",
        "offset": 0,
        "slot": "5",
        "type": "t_string_storage"
      },
      {
        "astId": 3268,
        "contract": "contracts/PokemonNFT.sol:PokemonNFT",
        "label": "requests",
        "offset": 0,
        "slot": "6",
        "type": "t_mapping(t_uint256,t_address)"
      }
    ],
    "types": {
      "t_address": {
        "encoding": "inplace",
        "label": "address",
        "numberOfBytes": "20"
      },
      "t_bool": {
        "encoding": "inplace",
        "label": "bool",
        "numberOfBytes": "1"
      },
      "t_mapping(t_address,t_bool)": {
        "encoding": "mapping",
        "key": "t_address",
        "label": "mapping(address => bool)",
        "numberOfBytes": "32",
        "value": "t_bool"
      },
      "t_mapping(t_address,t_mapping(t_address,t_bool))": {
        "encoding": "mapping",
        "key": "t_address",
        "label": "mapping(address => mapping(address => bool))",
        "numberOfBytes": "32",
        "value": "t_mapping(t_address,t_bool)"
      },
      "t_mapping(t_address,t_uint256)": {
        "encoding": "mapping",
        "key": "t_address",
        "label": "mapping(address => uint256)",
        "numberOfBytes": "32",
        "value": "t_uint256"
      },
      "t_mapping(t_uint256,t_address)": {
        "encoding": "mapping",
        "key": "t_uint256",
        "label": "mapping(uint256 => address)",
        "numberOfBytes": "32",
        "value": "t_address"
      },
      "t_mapping(t_uint256,t_mapping(t_address,t_uint256))": {
        "encoding": "mapping",
        "key": "t_uint256",
        "label": "mapping(uint256 => mapping(address => uint256))",
        "numberOfBytes": "32",
        "value": "t_mapping(t_address,t_uint256)"
      },
      "t_string_storage": {
        "encoding": "bytes",
        "label": "string",
        "numberOfBytes": "32"
      },
      "t_uint256": {
        "encoding": "inplace",
        "label": "uint256",
        "numberOfBytes": "32"
      }
    }
  }
}